ARM Linker, 5.03 [Build 76] [MDK-ARM Standard]

==============================================================================

Section Cross References

    system_lpc11xx.o(.text) refers to system_lpc11xx.o(i.__ARM_common_switch8) for __ARM_common_switch8
    system_lpc11xx.o(.text) refers to uidiv.o(.text) for __aeabi_uidivmod
    system_lpc11xx.o(.text) refers to system_lpc11xx.o(.data) for SystemFrequency
    startup_lpc11xx.o(RESET) refers to startup_lpc11xx.o(STACK) for __initial_sp
    startup_lpc11xx.o(RESET) refers to startup_lpc11xx.o(.text) for Reset_Handler
    startup_lpc11xx.o(RESET) refers to sim900a.o(.text) for TIMER32_0_IRQHandler
    startup_lpc11xx.o(RESET) refers to main.o(.text) for UART_IRQHandler
    startup_lpc11xx.o(.text) refers to entry.o(.ARM.Collect$$$$00000000) for __main
    main.o(.text) refers to uidiv.o(.text) for __aeabi_uidivmod
    main.o(.text) refers to printf8.o(i.__0printf$8) for __2printf
    main.o(.text) refers to sim900a_core.o(.text) for SIM900A_core_getch
    main.o(.text) refers to dpalarm.o(.text) for SIM900A_add_dp_alarm
    main.o(.text) refers to memseta.o(.text) for __aeabi_memclr4
    main.o(.text) refers to memmovea.o(.text) for __aeabi_memcpy
    main.o(.text) refers to system_lpc11xx.o(.text) for SystemInit
    main.o(.text) refers to printf8.o(i.__0sprintf$8) for __2sprintf
    main.o(.text) refers to sim900a.o(.text) for SIM900A_open
    main.o(.text) refers to smset.o(.text) for sm_init
==============================================================================

Removing Unused input sections from the image.

    Removing option.o(.text), (276 bytes).

1 unused section(s) (total 276 bytes) removed from the image.

==============================================================================

Image Symbol Table

    Local Symbols

    Symbol Name                              Value     Ov Type        Size  Object(Section)

    RESET                                    0x00000000   Section      192  startup_lpc11xx.o(RESET)
    ../clib/microlib/ctype/ctype.c           0x00000000   Number         0  isalnum_o.o ABSOLUTE
    ../clib/microlib/ctype/ctype.c           0x00000000   Number         0  isdigit_o.o ABSOLUTE
    ../clib/microlib/ctype/ctype.c           0x00000000   Number         0  isalpha_o.o ABSOLUTE
    ../clib/microlib/ctype/ctype.c           0x00000000   Number         0  isupper_o.o ABSOLUTE
    ../clib/microlib/ctype/ctype.c           0x00000000   Number         0  isxdigit_o.o ABSOLUTE
    ../clib/microlib/ctype/ctype.c           0x00000000   Number         0  isblank_o.o ABSOLUTE
    ../clib/microlib/ctype/ctype.c           0x00000000   Number         0  ctype_o.o ABSOLUTE
    ../clib/microlib/ctype/ctype.c           0x00000000   Number         0  iscntrl_o.o ABSOLUTE
    ../clib/microlib/ctype/ctype.c           0x00000000   Number         0  isgraph_o.o ABSOLUTE
    ../clib/microlib/ctype/ctype.c           0x00000000   Number         0  islower_o.o ABSOLUTE
    ../clib/microlib/ctype/ctype.c           0x00000000   Number         0  isprint_o.o ABSOLUTE
    ../clib/microlib/ctype/ctype.c           0x00000000   Number         0  ispunct_o.o ABSOLUTE
    ../clib/microlib/ctype/ctype.c           0x00000000   Number         0  isspace_o.o ABSOLUTE
    ../clib/microlib/division.c              0x00000000   Number         0  uidiv.o ABSOLUTE
    ../clib/microlib/division.c              0x00000000   Number         0  uldiv.o ABSOLUTE
    ../clib/microlib/division.c              0x00000000   Number         0  idiv.o ABSOLUTE
    ../clib/microlib/errno.c                 0x00000000   Number         0  errno.o ABSOLUTE
    ../clib/microlib/init/entry.s            0x00000000   Number         0  entry7b.o ABSOLUTE
    ../clib/microlib/init/entry.s            0x00000000   Number         0  entry8b.o ABSOLUTE
    ../clib/microlib/init/entry.s            0x00000000   Number         0  entry9a.o ABSOLUTE
    ../clib/microlib/init/entry.s            0x00000000   Number         0  entry9b.o ABSOLUTE
    ../clib/microlib/init/entry.s            0x00000000   Number         0  entry10a.o ABSOLUTE
    ../clib/microlib/init/entry.s            0x00000000   Number         0  entry2.o ABSOLUTE
    ../clib/microlib/init/entry.s            0x00000000   Number         0  entry11b.o ABSOLUTE
    ../clib/microlib/init/entry.s            0x00000000   Number         0  entry.o ABSOLUTE
    ../clib/microlib/init/entry.s            0x00000000   Number         0  entry11a.o ABSOLUTE
    ../clib/microlib/init/entry.s            0x00000000   Number         0  entry5.o ABSOLUTE
    ../clib/microlib/init/entry.s            0x00000000   Number         0  entry10b.o ABSOLUTE
    ../clib/microlib/init/entry.s            0x00000000   Number         0  entry8a.o ABSOLUTE
    ../clib/microlib/init/entry.s            0x00000000   Number         0  entry7a.o ABSOLUTE
    ../clib/microlib/longlong.c              0x00000000   Number         0  llushr.o ABSOLUTE
    ../clib/microlib/longlong.c              0x00000000   Number         0  llshl.o ABSOLUTE
    ../clib/microlib/longlong.c              0x00000000   Number         0  llsshr.o ABSOLUTE
    ../clib/microlib/malloc/calloc.c         0x00000000   Number         0  calloc.o ABSOLUTE
    ../clib/microlib/malloc/malloc.c         0x00000000   Number         0  malloc.o ABSOLUTE
    ../clib/microlib/malloc/malloc.c         0x00000000   Number         0  mallocra.o ABSOLUTE
    ../clib/microlib/malloc/malloc.c         0x00000000   Number         0  malloca.o ABSOLUTE
    ../clib/microlib/malloc/malloc.c         0x00000000   Number         0  mallocr.o ABSOLUTE
    ../clib/microlib/malloc/mvars.c          0x00000000   Number         0  mvars.o ABSOLUTE
    ../clib/microlib/printf/printf.c         0x00000000   Number         0  printf8.o ABSOLUTE
    ../clib/microlib/printf/printf.c         0x00000000   Number         0  printf3.o ABSOLUTE
    ../clib/microlib/printf/printf.c         0x00000000   Number         0  printf5.o ABSOLUTE
    ../clib/microlib/printf/printf.c         0x00000000   Number         0  printf6.o ABSOLUTE
    ../clib/microlib/printf/printf.c         0x00000000   Number         0  printf7.o ABSOLUTE
    ../clib/microlib/printf/printf.c         0x00000000   Number         0  printfa.o ABSOLUTE
    ../clib/microlib/printf/printf.c         0x00000000   Number         0  printf4.o ABSOLUTE
    ../clib/microlib/printf/printf.c         0x00000000   Number         0  printf2.o ABSOLUTE
    ../clib/microlib/printf/printf.c         0x00000000   Number         0  printf1.o ABSOLUTE
    ../clib/microlib/printf/printf.c         0x00000000   Number         0  printf0.o ABSOLUTE
    ../clib/microlib/printf/printf.c         0x00000000   Number         0  printfb.o ABSOLUTE
    ../clib/microlib/printf/stubs.s          0x00000000   Number         0  stubs.o ABSOLUTE
    ../clib/microlib/stdio/fflush.c          0x00000000   Number         0  fflush.o ABSOLUTE
    ../clib/microlib/stdio/streams.c         0x00000000   Number         0  stdout.o ABSOLUTE
    ../clib/microlib/string/memcmp.c         0x00000000   Number         0  memcmp.o ABSOLUTE
    ../clib/microlib/string/memcpy.c         0x00000000   Number         0  memmoveb.o ABSOLUTE
    ../clib/microlib/string/memcpy.c         0x00000000   Number         0  memcpya.o ABSOLUTE
    ../clib/microlib/string/memcpy.c         0x00000000   Number         0  memcpyb.o ABSOLUTE
    ../clib/microlib/string/memcpy.c         0x00000000   Number         0  memmovea.o ABSOLUTE
    ../clib/microlib/string/memset.c         0x00000000   Number         0  memseta.o ABSOLUTE
    ../clib/microlib/string/strcpy.c         0x00000000   Number         0  strcpy.o ABSOLUTE
    ../clib/microlib/string/strlen.c         0x00000000   Number         0  strlen.o ABSOLUTE
    ../clib/microlib/string/strncat.c        0x00000000   Number         0  strncat.o ABSOLUTE
    ../clib/microlib/string/strncmp.c        0x00000000   Number         0  strncmp.o ABSOLUTE
    ../clib/microlib/string/strncpy.c        0x00000000   Number         0  strncpy.o ABSOLUTE
    ../clib/microlib/string/strstr.c         0x00000000   Number         0  strstr.o ABSOLUTE
    ../clib/microlib/stubs.s                 0x00000000   Number         0  iusefp.o ABSOLUTE
    ../clib/scanf.c                          0x00000000   Number         0  _strtoul.o ABSOLUTE
    ../clib/scanf.c                          0x00000000   Number         0  _chval.o ABSOLUTE
    ../clib/scanf.c                          0x00000000   Number         0  strtol.o ABSOLUTE
    ../clib/scanf.c                          0x00000000   Number         0  atoi.o ABSOLUTE
    ../fplib/microlib/fpadd.c                0x00000000   Number         0  dadd.o ABSOLUTE
    ../fplib/microlib/fpdiv.c                0x00000000   Number         0  ddiv.o ABSOLUTE
    ../fplib/microlib/fpepilogue.c           0x00000000   Number         0  depilogue.o ABSOLUTE
    ../fplib/microlib/fpfix.c                0x00000000   Number         0  dfixul.o ABSOLUTE
    ../fplib/microlib/fpflt.c                0x00000000   Number         0  dflti.o ABSOLUTE
    ../fplib/microlib/fpmul.c                0x00000000   Number         0  dmul.o ABSOLUTE
    ..\..\src\SIM900A.c                      0x00000000   Number         0  sim900a.o ABSOLUTE
    ..\..\src\SMS.c                          0x00000000   Number         0  sms.o ABSOLUTE
    ..\..\src\cmdfifo\cmdfifo.c              0x00000000   Number         0  cmdfifo.o ABSOLUTE
    ..\..\src\conv.c                         0x00000000   Number         0  conv.o ABSOLUTE
    ..\..\src\dpalarm.c                      0x00000000   Number         0  dpalarm.o ABSOLUTE
    ..\..\src\gprs.c                         0x00000000   Number         0  gprs.o ABSOLUTE
    ..\..\src\pdulib\pdu_core.c              0x00000000   Number         0  pdu_core.o ABSOLUTE
    ..\..\src\pdulib\pdu_handle.c            0x00000000   Number         0  pdu_handle.o ABSOLUTE
    ..\..\src\pdulib\pdu_support.c           0x00000000   Number         0  pdu_support.o ABSOLUTE
    ..\..\src\sim900a_api.c                  0x00000000   Number         0  sim900a_api.o ABSOLUTE
    ..\..\src\sim900a_core.c                 0x00000000   Number         0  sim900a_core.o ABSOLUTE
    ..\..\src\smset.c                        0x00000000   Number         0  smset.o ABSOLUTE
    ..\..\src\string\object.c                0x00000000   Number         0  object.o ABSOLUTE
    CM0\core_cm0.c                           0x00000000   Number         0  core_cm0.o ABSOLUTE
    LPC11xx\startup\startup_LPC11xx.s        0x00000000   Number         0  startup_lpc11xx.o ABSOLUTE
    LPC11xx\system_LPC11xx.c                 0x00000000   Number         0  system_lpc11xx.o ABSOLUTE
    USER_CODE\main.c                         0x00000000   Number         0  main.o ABSOLUTE
    USER_CODE\option.c                       0x00000000   Number         0  option.o ABSOLUTE
    cdrcmple.s                               0x00000000   Number         0  cdrcmple.o ABSOLUTE
    dc.s                                     0x00000000   Number         0  dc.o ABSOLUTE
    handlers.s                               0x00000000   Number         0  handlers.o ABSOLUTE
    init.s                                   0x00000000   Number         0  init.o ABSOLUTE
    .ARM.Collect$$$$00000000                 0x000000c0   Section        0  entry.o(.ARM.Collect$$$$00000000)
    .ARM.Collect$$$$00000001                 0x000000c0   Section        4  entry2.o(.ARM.Collect$$$$00000001)
    .ARM.Collect$$$$00000004                 0x000000c4   Section        4  entry5.o(.ARM.Collect$$$$00000004)
    .ARM.Collect$$$$00000008                 0x000000c8   Section        0  entry7b.o(.ARM.Collect$$$$00000008)
    .ARM.Collect$$$$0000000A                 0x000000c8   Section        0  entry8b.o(.ARM.Collect$$$$0000000A)
    .ARM.Collect$$$$0000000B                 0x000000c8   Section        8  entry9a.o(.ARM.Collect$$$$0000000B)
    .ARM.Collect$$$$0000000D                 0x000000d0   Section        0  entry10a.o(.ARM.Collect$$$$0000000D)
    .ARM.Collect$$$$0000000F                 0x000000d0   Section        0  entry11a.o(.ARM.Collect$$$$0000000F)
    .ARM.Collect$$$$00002712                 0x000000d0   Section        4  entry2.o(.ARM.Collect$$$$00002712)
    __lit__00000000                          0x000000d0   Data           4  entry2.o(.ARM.Collect$$$$00002712)
    .text                                    0x000000d4   Section        0  system_lpc11xx.o(.text)
    .text                                    0x00000354   Section       28  startup_lpc11xx.o(.text)
    .text                                    0x00000370   Section        0  main.o(.text)
    NVIC_SetPriority                         0x00000371   Thumb Code   110  main.o(.text)
    NVIC_EnableIRQ                           0x00000663   Thumb Code    14  main.o(.text)
    .text                                    0x000006d4   Section        0  conv.o(.text)
    .text                                    0x000009d0   Section        0  dpalarm.o(.text)
    _sms_alarm_humidity                      0x00000a01   Thumb Code   162  dpalarm.o(.text)
    _sms_alarm_temperature                   0x00000aa3   Thumb Code   156  dpalarm.o(.text)
    .text                                    0x00001154   Section        0  gprs.o(.text)
    .text                                    0x000016f0   Section        0  sim900a.o(.text)
    _at_recv_CREG_cb                         0x000016f1   Thumb Code     6  sim900a.o(.text)
    _passive_callback                        0x000016f7   Thumb Code    54  sim900a.o(.text)
    _recv_sm_callback                        0x0000172d   Thumb Code   234  sim900a.o(.text)
    _at_recv_CMT_cb                          0x00001817   Thumb Code    14  sim900a.o(.text)
    _cds_handle                              0x00001825   Thumb Code    84  sim900a.o(.text)
    _at_recv_CDS_cb                          0x00001879   Thumb Code    14  sim900a.o(.text)
    _at_recv_RING_cb                         0x00001887   Thumb Code    46  sim900a.o(.text)
    _at_recv_CALV_cb                         0x000018b5   Thumb Code    12  sim900a.o(.text)
    _at_recv_SEND_OK_cb                      0x000018c1   Thumb Code    12  sim900a.o(.text)
    _at_recv_SEND_FAIL_cb                    0x000018cd   Thumb Code    12  sim900a.o(.text)
    _at_recv_CONNECT_OK_cb                   0x000018d9   Thumb Code    12  sim900a.o(.text)
    _at_recv_CLOSED_cb                       0x000018e5   Thumb Code    18  sim900a.o(.text)
    _at_recv_CIPSTATUS_cb                    0x000018f7   Thumb Code    14  sim900a.o(.text)
    _at_recv_CONNECT_FAIL_cb                 0x00001905   Thumb Code    12  sim900a.o(.text)
    __cb_get_cclk_time                       0x00001911   Thumb Code    62  sim900a.o(.text)
    _get_cclk_time_string                    0x0000194f   Thumb Code    56  sim900a.o(.text)
    NVIC_SetPriority                         0x00001c55   Thumb Code   110  sim900a.o(.text)
    .text                                    0x00001cf4   Section        0  sim900a_core.o(.text)
    _SIM900A_parse_cmd_ret_stat              0x00001cf5   Thumb Code    60  sim900a_core.o(.text)
    _SIM900A_parse_input                     0x00001d31   Thumb Code   134  sim900a_core.o(.text)
    _cmd_callback                            0x00001db7   Thumb Code     2  sim900a_core.o(.text)
    .text                                    0x00001f48   Section        0  smset.o(.text)
    _sm_error_handle                         0x00001f5b   Thumb Code    14  smset.o(.text)
    _sm_set_balance                          0x00001f69   Thumb Code     6  smset.o(.text)
    _sm_inner_cmd_handle_view_dp             0x00001f6f   Thumb Code    18  smset.o(.text)
    _sm_inner_cmd_handle_query               0x00001f81   Thumb Code    56  smset.o(.text)
    _sm_inner_cmd_handle_balance             0x00001fb9   Thumb Code   158  smset.o(.text)
    _sm_inner_cmd_handle_set_time            0x00002057   Thumb Code    58  smset.o(.text)
    _sm_inner_cmd_handle_parse_pdu           0x00002091   Thumb Code    44  smset.o(.text)
    _sm_inner_cmd_handle_ring_ATH            0x000020bd   Thumb Code    28  smset.o(.text)
    __cb_check_sim_atreg                     0x000020d9   Thumb Code   104  smset.o(.text)
    _sm_inner_cmd_handle_check_sim           0x00002141   Thumb Code    78  smset.o(.text)
    _sm_inner_cmd_handle_call_phone          0x0000218f   Thumb Code    78  smset.o(.text)
    .text                                    0x00002374   Section        0  object.o(.text)
    .text                                    0x00002520   Section        0  pdu_core.o(.text)
    _ch_to_hex                               0x00002521   Thumb Code    54  pdu_core.o(.text)
    _a_to_u16                                0x00002557   Thumb Code    64  pdu_core.o(.text)
    _u16_to_asc_and_verify                   0x00002597   Thumb Code    48  pdu_core.o(.text)
    _pdu_parse_field_proc                    0x000025c7   Thumb Code   226  pdu_core.o(.text)
    .text                                    0x000027cc   Section        0  pdu_handle.o(.text)
    _handle_set_dp_num                       0x00002905   Thumb Code    40  pdu_handle.o(.text)
    __set_dp_data                            0x0000292d   Thumb Code   226  pdu_handle.o(.text)
    _handle_set_dp_temp                      0x00002a0f   Thumb Code    22  pdu_handle.o(.text)
    _handle_set_dp_hum                       0x00002a25   Thumb Code    22  pdu_handle.o(.text)
    _handle_set_dp_time                      0x00002a3b   Thumb Code   680  pdu_handle.o(.text)
    _handle_query_dp                         0x00002ce3   Thumb Code    50  pdu_handle.o(.text)
    _handle_query_tel                        0x00002d15   Thumb Code    18  pdu_handle.o(.text)
    _handle_set_tel                          0x00002d27   Thumb Code    50  pdu_handle.o(.text)
    .text                                    0x00002d84   Section        0  pdu_support.o(.text)
    .text                                    0x00002e78   Section        0  cmdfifo.o(.text)
    cmd_fifo_pop                             0x00002e79   Thumb Code    60  cmdfifo.o(.text)
    .text                                    0x00002f68   Section        0  sim900a_api.o(.text)
    _handle_sim_insert                       0x00002f69   Thumb Code    36  sim900a_api.o(.text)
    _handle_sim_cops                         0x00002f8d   Thumb Code    56  sim900a_api.o(.text)
    _handle_rssi_level                       0x00002fc5   Thumb Code   100  sim900a_api.o(.text)
    _save_SMS_address                        0x00003029   Thumb Code    24  sim900a_api.o(.text)
    _handle_sim_reg                          0x00003041   Thumb Code    16  sim900a_api.o(.text)
    .text                                    0x000032ec   Section        0  sms.o(.text)
    _print_utf8_to_pdu                       0x000032ed   Thumb Code   242  sms.o(.text)
    _conv_normal_tel_to_PDU_tel              0x000033df   Thumb Code    56  sms.o(.text)
    _SMS_vcprintf                            0x000035e7   Thumb Code   178  sms.o(.text)
    .text                                    0x000037dc   Section        0  uidiv.o(.text)
    .text                                    0x00003808   Section        0  idiv.o(.text)
    .text                                    0x00003830   Section        0  memmovea.o(.text)
    .text                                    0x00003870   Section        0  memseta.o(.text)
    .text                                    0x00003894   Section        0  strstr.o(.text)
    .text                                    0x000038bc   Section        0  strncpy.o(.text)
    .text                                    0x000038d6   Section        0  strlen.o(.text)
    .text                                    0x000038e4   Section        0  memcmp.o(.text)
    .text                                    0x000038fe   Section        0  strncat.o(.text)
    .text                                    0x00003926   Section        0  strcpy.o(.text)
    .text                                    0x00003938   Section        0  strncmp.o(.text)
    .text                                    0x00003956   Section        0  calloc.o(.text)
    .text                                    0x00003972   Section        0  atoi.o(.text)
    .text                                    0x0000398c   Section        0  ddiv.o(.text)
    .text                                    0x00003a7c   Section        0  dflti.o(.text)
    .text                                    0x00003aa4   Section        0  uldiv.o(.text)
    .text                                    0x00003b04   Section        0  strtol.o(.text)
    .text                                    0x00003b74   Section        0  iusefp.o(.text)
    .text                                    0x00003b74   Section        0  depilogue.o(.text)
    .text                                    0x00003c34   Section        0  dadd.o(.text)
    .text                                    0x00003d98   Section        0  dmul.o(.text)
    .text                                    0x00003e68   Section        0  dfixul.o(.text)
    .text                                    0x00003ea8   Section       40  cdrcmple.o(.text)
    .text                                    0x00003ed0   Section       36  init.o(.text)
    .text                                    0x00003ef4   Section        0  llshl.o(.text)
    .text                                    0x00003f14   Section        0  llushr.o(.text)
    .text                                    0x00003f36   Section        0  llsshr.o(.text)
    .text                                    0x00003f5c   Section        0  ctype_o.o(.text)
    .text                                    0x00003f64   Section        0  _strtoul.o(.text)
    .text                                    0x0000400a   Section        0  _chval.o(.text)
    i.__0printf$8                            0x00004028   Section        0  printf8.o(i.__0printf$8)
    i.__0sprintf$8                           0x00004048   Section        0  printf8.o(i.__0sprintf$8)
    i.__0vprintf                             0x00004070   Section        0  printfa.o(i.__0vprintf)
    i.__0vsnprintf                           0x00004084   Section        0  printfa.o(i.__0vsnprintf)
    i.__ARM_clz                              0x000040a8   Section        0  depilogue.o(i.__ARM_clz)
    i.__ARM_common_switch8                   0x000040d6   Section        0  system_lpc11xx.o(i.__ARM_common_switch8)
    i.__aeabi_errno_addr                     0x000040f4   Section        0  errno.o(i.__aeabi_errno_addr)
    i.__free$realloc                         0x000040fc   Section        0  mallocr.o(i.__free$realloc)
    i.__malloc$realloc                       0x00004160   Section        0  mallocr.o(i.__malloc$realloc)
    i.__scatterload_copy                     0x000041a8   Section       14  handlers.o(i.__scatterload_copy)
    i.__scatterload_null                     0x000041b6   Section        2  handlers.o(i.__scatterload_null)
    i.__scatterload_zeroinit                 0x000041b8   Section       14  handlers.o(i.__scatterload_zeroinit)
    i._fp_digits                             0x000041c8   Section        0  printfa.o(i._fp_digits)
    _fp_digits                               0x000041c9   Thumb Code   314  printfa.o(i._fp_digits)
    i._printf_core                           0x00004320   Section        0  printf8.o(i._printf_core)
    _printf_core                             0x00004321   Thumb Code  1072  printf8.o(i._printf_core)
    i._printf_core                           0x00004750   Section        0  printfa.o(i._printf_core)
    _printf_core                             0x00004751   Thumb Code  1766  printfa.o(i._printf_core)
    i._printf_post_padding                   0x00004e48   Section        0  printf8.o(i._printf_post_padding)
    _printf_post_padding                     0x00004e49   Thumb Code    32  printf8.o(i._printf_post_padding)
    i._printf_post_padding                   0x00004e68   Section        0  printfa.o(i._printf_post_padding)
    _printf_post_padding                     0x00004e69   Thumb Code    32  printfa.o(i._printf_post_padding)
    i._printf_pre_padding                    0x00004e88   Section        0  printf8.o(i._printf_pre_padding)
    _printf_pre_padding                      0x00004e89   Thumb Code    44  printf8.o(i._printf_pre_padding)
    i._printf_pre_padding                    0x00004eb4   Section        0  printfa.o(i._printf_pre_padding)
    _printf_pre_padding                      0x00004eb5   Thumb Code    44  printfa.o(i._printf_pre_padding)
    i._snputc                                0x00004ee0   Section        0  printfa.o(i._snputc)
    _snputc                                  0x00004ee1   Thumb Code    22  printfa.o(i._snputc)
    i._sputc                                 0x00004ef6   Section        0  printf8.o(i._sputc)
    _sputc                                   0x00004ef7   Thumb Code    10  printf8.o(i._sputc)
    i.internal_alloc                         0x00004f00   Section        0  mallocr.o(i.internal_alloc)
    internal_alloc                           0x00004f01   Thumb Code    74  mallocr.o(i.internal_alloc)
    i.realloc                                0x00004f50   Section        0  mallocr.o(i.realloc)
    .constdata                               0x00004fc4   Section      351  dpalarm.o(.constdata)
    .constdata                               0x00005124   Section      112  gprs.o(.constdata)
    l_stat_value                             0x00005124   Data         112  gprs.o(.constdata)
    .constdata                               0x00005194   Section      104  sim900a.o(.constdata)
    l_SIM900A_idle_recv_handle               0x00005194   Data         104  sim900a.o(.constdata)
    .constdata                               0x000051fc   Section       48  sim900a_core.o(.constdata)
    .constdata                               0x0000522c   Section      181  smset.o(.constdata)
    .constdata                               0x000052e4   Section      140  pdu_handle.o(.constdata)
    key_handle_array                         0x000052e4   Data         140  pdu_handle.o(.constdata)
    .constdata                               0x00005370   Section       96  sim900a_api.o(.constdata)
    l_init_atcmd_array                       0x00005370   Data          96  sim900a_api.o(.constdata)
    .constdata                               0x000053d0   Section      129  ctype_o.o(.constdata)
    .constdata                               0x00005454   Section        4  ctype_o.o(.constdata)
    table                                    0x00005454   Data           4  ctype_o.o(.constdata)
    .conststring                             0x00005458   Section      166  gprs.o(.conststring)
    .conststring                             0x000054fe   Section       93  sim900a.o(.conststring)
    .conststring                             0x0000555b   Section       25  sim900a_core.o(.conststring)
    .conststring                             0x00005574   Section       97  pdu_handle.o(.conststring)
    .conststring                             0x000055d5   Section      175  sim900a_api.o(.conststring)
    .conststring                             0x00005684   Section       15  sms.o(.conststring)
    .data                                    0x10000000   Section        4  system_lpc11xx.o(.data)
    .data                                    0x10000004   Section       12  main.o(.data)
    endian_test                              0x10000004   Data           4  main.o(.data)
    .data                                    0x10000010   Section        8  dpalarm.o(.data)
    l_option                                 0x10000010   Data           4  dpalarm.o(.data)
    rec_count                                0x10000014   Data           4  dpalarm.o(.data)
    .data                                    0x10000018   Section       12  sim900a.o(.data)
    l_option                                 0x10000018   Data           4  sim900a.o(.data)
    _cclk_time_string_obj                    0x1000001c   Data           4  sim900a.o(.data)
    ring_times                               0x10000020   Data           4  sim900a.o(.data)
    .data                                    0x10000024   Section        1  sim900a_core.o(.data)
    l_sim_stat                               0x10000024   Data           1  sim900a_core.o(.data)
    .data                                    0x10000028   Section       12  smset.o(.data)
    l_balance                                0x10000028   Data           1  smset.o(.data)
    l_option                                 0x10000030   Data           4  smset.o(.data)
    .data                                    0x10000034   Section        8  pdu_core.o(.data)
    l_key_handle_arr                         0x10000034   Data           4  pdu_core.o(.data)
    l_key_handle_num                         0x10000038   Data           4  pdu_core.o(.data)
    .data                                    0x1000003c   Section       16  cmdfifo.o(.data)
    head                                     0x1000003c   Data           4  cmdfifo.o(.data)
    last                                     0x10000040   Data           4  cmdfifo.o(.data)
    l_handle_list                            0x10000044   Data           4  cmdfifo.o(.data)
    l_handle_list_total                      0x10000048   Data           4  cmdfifo.o(.data)
    .data                                    0x1000004c   Section       52  sms.o(.data)
    l_pdu_msg_format                         0x1000004c   Data          52  sms.o(.data)
    .data                                    0x10000080   Section        4  stdout.o(.data)
    .data                                    0x10000084   Section        4  mvars.o(.data)
    .data                                    0x10000088   Section        4  mvars.o(.data)
    .data                                    0x1000008c   Section        4  errno.o(.data)
    _errno                                   0x1000008c   Data           4  errno.o(.data)
    .bss                                     0x10000090   Section      788  main.o(.bss)
    .bss                                     0x100003a4   Section       80  dpalarm.o(.bss)
    l_dp_alarm_records                       0x100003a4   Data          80  dpalarm.o(.bss)
    .bss                                     0x100003f4   Section       52  gprs.o(.bss)
    l_cip_statu                              0x100003f4   Data          21  gprs.o(.bss)
    l_gprs_stat                              0x1000040c   Data          28  gprs.o(.bss)
    .bss                                     0x10000428   Section       12  sim900a.o(.bss)
    l_phone_num                              0x10000428   Data          12  sim900a.o(.bss)
    .bss                                     0x10000434   Section     1032  sim900a_core.o(.bss)
    l_serial_buffer                          0x10000434   Data         508  sim900a_core.o(.bss)
    l_sim_cmdline                            0x10000630   Data         524  sim900a_core.o(.bss)
    .bss                                     0x1000083c   Section       35  smset.o(.bss)
    l_time_cclk_string                       0x1000083c   Data          35  smset.o(.bss)
    .bss                                     0x10000860   Section       40  pdu_handle.o(.bss)
    .bss                                     0x10000888   Section       30  cmdfifo.o(.bss)
    l_fifo_list                              0x10000888   Data          30  cmdfifo.o(.bss)
    .bss                                     0x100008a8   Section       32  sim900a_api.o(.bss)
    l_sim_stat                               0x100008a8   Data          32  sim900a_api.o(.bss)
    .bss                                     0x100008c8   Section      320  sms.o(.bss)
    l_sm_buffer                              0x100008c8   Data         300  sms.o(.bss)
    l_sm_phone_number                        0x100009f4   Data          20  sms.o(.bss)
    HEAP                                     0x10000a08   Section     1024  startup_lpc11xx.o(HEAP)
    STACK                                    0x10000e08   Section     1024  startup_lpc11xx.o(STACK)

    Global Symbols

    Symbol Name                              Value     Ov Type        Size  Object(Section)

    BuildAttributes$$THM_ISAv3M$S$PE$A:L22$X:L11$S22$IEEE1$IW$USESV6$~STKCKD$USESV7$~SHL$OSPACE$ROPI$EBA8$MICROLIB$REQ8$PRES8$EABIv2 0x00000000   Number         0  anon$$obj.o ABSOLUTE
    __ARM_use_no_argv                        0x00000000   Number         0  main.o ABSOLUTE
    __Vectors                                0x00000000   Data           4  startup_lpc11xx.o(RESET)
    _printf_a                                0x00000000   Number         0  stubs.o ABSOLUTE
    _printf_c                                0x00000000   Number         0  stubs.o ABSOLUTE
    _printf_charcount                        0x00000000   Number         0  stubs.o ABSOLUTE
    _printf_d                                0x00000000   Number         0  stubs.o ABSOLUTE
    _printf_e                                0x00000000   Number         0  stubs.o ABSOLUTE
    _printf_f                                0x00000000   Number         0  stubs.o ABSOLUTE
    _printf_flags                            0x00000000   Number         0  stubs.o ABSOLUTE
    _printf_fp_dec                           0x00000000   Number         0  stubs.o ABSOLUTE
    _printf_fp_hex                           0x00000000   Number         0  stubs.o ABSOLUTE
    _printf_g                                0x00000000   Number         0  stubs.o ABSOLUTE
    _printf_i                                0x00000000   Number         0  stubs.o ABSOLUTE
    _printf_int_dec                          0x00000000   Number         0  stubs.o ABSOLUTE
    _printf_l                                0x00000000   Number         0  stubs.o ABSOLUTE
    _printf_lc                               0x00000000   Number         0  stubs.o ABSOLUTE
    _printf_ll                               0x00000000   Number         0  stubs.o ABSOLUTE
    _printf_lld                              0x00000000   Number         0  stubs.o ABSOLUTE
    _printf_lli                              0x00000000   Number         0  stubs.o ABSOLUTE
    _printf_llo                              0x00000000   Number         0  stubs.o ABSOLUTE
    _printf_llu                              0x00000000   Number         0  stubs.o ABSOLUTE
    _printf_llx                              0x00000000   Number         0  stubs.o ABSOLUTE
    _printf_longlong_dec                     0x00000000   Number         0  stubs.o ABSOLUTE
    _printf_longlong_hex                     0x00000000   Number         0  stubs.o ABSOLUTE
    _printf_longlong_oct                     0x00000000   Number         0  stubs.o ABSOLUTE
    _printf_ls                               0x00000000   Number         0  stubs.o ABSOLUTE
    _printf_mbtowc                           0x00000000   Number         0  stubs.o ABSOLUTE
    _printf_n                                0x00000000   Number         0  stubs.o ABSOLUTE
    _printf_o                                0x00000000   Number         0  stubs.o ABSOLUTE
    _printf_p                                0x00000000   Number         0  stubs.o ABSOLUTE
    _printf_percent                          0x00000000   Number         0  stubs.o ABSOLUTE
    _printf_pre_padding                      0x00000000   Number         0  stubs.o ABSOLUTE
    _printf_return_value                     0x00000000   Number         0  stubs.o ABSOLUTE
    _printf_s                                0x00000000   Number         0  stubs.o ABSOLUTE
    _printf_sizespec                         0x00000000   Number         0  stubs.o ABSOLUTE
    _printf_str                              0x00000000   Number         0  stubs.o ABSOLUTE
    _printf_truncate_signed                  0x00000000   Number         0  stubs.o ABSOLUTE
    _printf_truncate_unsigned                0x00000000   Number         0  stubs.o ABSOLUTE
    _printf_u                                0x00000000   Number         0  stubs.o ABSOLUTE
    _printf_wc                               0x00000000   Number         0  stubs.o ABSOLUTE
    _printf_wctomb                           0x00000000   Number         0  stubs.o ABSOLUTE
    _printf_widthprec                        0x00000000   Number         0  stubs.o ABSOLUTE
    _printf_x                                0x00000000   Number         0  stubs.o ABSOLUTE
    __cpp_initialize__aeabi_                  - Undefined Weak Reference
    __cxa_finalize                            - Undefined Weak Reference
    __decompress                              - Undefined Weak Reference
    _clock_init                               - Undefined Weak Reference
    _microlib_exit                            - Undefined Weak Reference
    __main                                   0x000000c1   Thumb Code     0  entry.o(.ARM.Collect$$$$00000000)
    _main_stk                                0x000000c1   Thumb Code     0  entry2.o(.ARM.Collect$$$$00000001)
    _main_scatterload                        0x000000c5   Thumb Code     0  entry5.o(.ARM.Collect$$$$00000004)
    __main_after_scatterload                 0x000000c9   Thumb Code     0  entry5.o(.ARM.Collect$$$$00000004)
    _main_clock                              0x000000c9   Thumb Code     0  entry7b.o(.ARM.Collect$$$$00000008)
    _main_cpp_init                           0x000000c9   Thumb Code     0  entry8b.o(.ARM.Collect$$$$0000000A)
    _main_init                               0x000000c9   Thumb Code     0  entry9a.o(.ARM.Collect$$$$0000000B)
    __rt_final_cpp                           0x000000d1   Thumb Code     0  entry10a.o(.ARM.Collect$$$$0000000D)
    __rt_final_exit                          0x000000d1   Thumb Code     0  entry11a.o(.ARM.Collect$$$$0000000F)
    SystemFrequencyUpdate                    0x000000d5   Thumb Code   396  system_lpc11xx.o(.text)
    SystemInit                               0x00000261   Thumb Code   158  system_lpc11xx.o(.text)
    Reset_Handler                            0x00000355   Thumb Code     4  startup_lpc11xx.o(.text)
    NMI_Handler                              0x00000359   Thumb Code     2  startup_lpc11xx.o(.text)
    HardFault_Handler                        0x0000035b   Thumb Code     2  startup_lpc11xx.o(.text)
    MemManage_Handler                        0x0000035d   Thumb Code     2  startup_lpc11xx.o(.text)
    BusFault_Handler                         0x0000035f   Thumb Code     2  startup_lpc11xx.o(.text)
    UsageFault_Handler                       0x00000361   Thumb Code     2  startup_lpc11xx.o(.text)
    SVC_Handler                              0x00000363   Thumb Code     2  startup_lpc11xx.o(.text)
    DebugMon_Handler                         0x00000365   Thumb Code     2  startup_lpc11xx.o(.text)
    PendSV_Handler                           0x00000367   Thumb Code     2  startup_lpc11xx.o(.text)
    SysTick_Handler                          0x00000369   Thumb Code     2  startup_lpc11xx.o(.text)
    ADC_IRQHandler                           0x0000036b   Thumb Code     0  startup_lpc11xx.o(.text)
    BOD_IRQHandler                           0x0000036b   Thumb Code     0  startup_lpc11xx.o(.text)
    CAN_IRQHandler                           0x0000036b   Thumb Code     0  startup_lpc11xx.o(.text)
    FMC_IRQHandler                           0x0000036b   Thumb Code     0  startup_lpc11xx.o(.text)
    I2C_IRQHandler                           0x0000036b   Thumb Code     0  startup_lpc11xx.o(.text)
    PIOINT0_IRQHandler                       0x0000036b   Thumb Code     0  startup_lpc11xx.o(.text)
    PIOINT1_IRQHandler                       0x0000036b   Thumb Code     0  startup_lpc11xx.o(.text)
    PIOINT3_IRQHandler                       0x0000036b   Thumb Code     0  startup_lpc11xx.o(.text)
    SSP0_IRQHandler                          0x0000036b   Thumb Code     0  startup_lpc11xx.o(.text)
    SSP1_IRQHandler                          0x0000036b   Thumb Code     0  startup_lpc11xx.o(.text)
    TIMER16_0_IRQHandler                     0x0000036b   Thumb Code     0  startup_lpc11xx.o(.text)
    TIMER16_1_IRQHandler                     0x0000036b   Thumb Code     0  startup_lpc11xx.o(.text)
    TIMER32_1_IRQHandler                     0x0000036b   Thumb Code     0  startup_lpc11xx.o(.text)
    USB_FIQHandler                           0x0000036b   Thumb Code     0  startup_lpc11xx.o(.text)
    USB_IRQHandler                           0x0000036b   Thumb Code     0  startup_lpc11xx.o(.text)
    WAKEUP_IRQHandler                        0x0000036b   Thumb Code     0  startup_lpc11xx.o(.text)
    WDT_IRQHandler                           0x0000036b   Thumb Code     0  startup_lpc11xx.o(.text)
    mdelay                                   0x000003df   Thumb Code    26  main.o(.text)
    display_telephone_state                  0x000003f9   Thumb Code     2  main.o(.text)
    myDelay                                  0x000003fb   Thumb Code    28  main.o(.text)
    uartInit                                 0x00000417   Thumb Code   150  main.o(.text)
    ext_int_init                             0x000004ad   Thumb Code    54  main.o(.text)
    PIOINT2_IRQHandler                       0x000004e3   Thumb Code    48  main.o(.text)
    uartSendByte                             0x00000513   Thumb Code    18  main.o(.text)
    UART_SendByte                            0x00000525   Thumb Code    12  main.o(.text)
    FEED_DOG                                 0x00000531   Thumb Code     2  main.o(.text)
    uartSendStr                              0x00000533   Thumb Code    26  main.o(.text)
    UART_IRQHandler                          0x0000054d   Thumb Code    50  main.o(.text)
    ALERTER_CTRL                             0x0000057f   Thumb Code     2  main.o(.text)
    alarm_demo                               0x00000581   Thumb Code    56  main.o(.text)
    main                                     0x000005b9   Thumb Code   170  main.o(.text)
    conv_PDU_tel_to_normal_tel               0x000006d5   Thumb Code    98  conv.o(.text)
    conv_hex_char_to_dec_value               0x00000737   Thumb Code    54  conv.o(.text)
    conv_PDU_date_to_CCLK_date               0x0000076d   Thumb Code   280  conv.o(.text)
    conv_pdu2asc                             0x00000885   Thumb Code    84  conv.o(.text)
    conv_toupper                             0x000008d9   Thumb Code    32  conv.o(.text)
    conv_ucs2_to_utf8                        0x000008f9   Thumb Code   176  conv.o(.text)
    SIM900A_add_dp_alarm                     0x000009d1   Thumb Code    48  dpalarm.o(.text)
    SIM900A_send_tcp_balance                 0x00000b3f   Thumb Code    54  dpalarm.o(.text)
    SIM900A_send_tcp_power_alarm             0x00000b75   Thumb Code    36  dpalarm.o(.text)
    SIM900A_send_tcp_dp_alarm                0x00000b99   Thumb Code   290  dpalarm.o(.text)
    SIM900A_gprs_send_tcp                    0x00000cbb   Thumb Code   190  dpalarm.o(.text)
    SIM900A_run_dp_alarm                     0x00000d79   Thumb Code   682  dpalarm.o(.text)
    SIM900A_send_power_alarm                 0x00001023   Thumb Code   104  dpalarm.o(.text)
    SIM900A_send_phone_call_alarm            0x0000108b   Thumb Code    12  dpalarm.o(.text)
    SIM900A_dpalarm_set_option               0x00001097   Thumb Code     6  dpalarm.o(.text)
    gprs_init                                0x00001155   Thumb Code   194  gprs.o(.text)
    is_TCP_NO_BUSY                           0x00001217   Thumb Code    18  gprs.o(.text)
    is_TCP_CONNECTED                         0x00001229   Thumb Code    18  gprs.o(.text)
    is_TCP_CONNECT_FAIL                      0x0000123b   Thumb Code    18  gprs.o(.text)
    is_TCP_NO_CLOSED                         0x0000124d   Thumb Code    18  gprs.o(.text)
    is_TCP_SENDOK                            0x0000125f   Thumb Code    18  gprs.o(.text)
    is_CIPSTATUS_UPDATED                     0x00001271   Thumb Code    18  gprs.o(.text)
    is_READING                               0x00001283   Thumb Code    18  gprs.o(.text)
    gprs_tcp_set_SENDOK                      0x00001295   Thumb Code     8  gprs.o(.text)
    gprs_tcp_set_SENDFAIL                    0x0000129d   Thumb Code    10  gprs.o(.text)
    gprs_tcp_set_SENDSTART                   0x000012a7   Thumb Code    10  gprs.o(.text)
    gprs_tcp_set_CONNOK                      0x000012b1   Thumb Code     8  gprs.o(.text)
    gprs_tcp_set_CLOSED                      0x000012b9   Thumb Code    46  gprs.o(.text)
    gprs_tcp_set_FAIL                        0x000012e7   Thumb Code    12  gprs.o(.text)
    wait_timeout                             0x000012f3   Thumb Code    54  gprs.o(.text)
    gprs_net_get_stat                        0x00001329   Thumb Code   106  gprs.o(.text)
    gprs_net_shut                            0x00001393   Thumb Code    20  gprs.o(.text)
    gprs_net_connect                         0x000013a7   Thumb Code   218  gprs.o(.text)
    gprs_net_send_formatted                  0x00001481   Thumb Code   134  gprs.o(.text)
    gprs_net_read                            0x00001507   Thumb Code   346  gprs.o(.text)
    gprs_set_cip_statu                       0x00001661   Thumb Code    30  gprs.o(.text)
    at_recv_IPD_cb                           0x0000167f   Thumb Code   100  gprs.o(.text)
    fputc                                    0x00001987   Thumb Code    16  sim900a.o(.text)
    SIM900A_get_device_id                    0x00001997   Thumb Code    20  sim900a.o(.text)
    SIM900A_get_options                      0x000019ab   Thumb Code     6  sim900a.o(.text)
    SIM900A_open                             0x000019b1   Thumb Code    14  sim900a.o(.text)
    SIM900A_init                             0x000019bf   Thumb Code    44  sim900a.o(.text)
    SIM900A_check_regs                       0x000019eb   Thumb Code    12  sim900a.o(.text)
    SIM900A_main_loop                        0x000019f7   Thumb Code     8  sim900a.o(.text)
    SIM900A_get_timestamp                    0x000019ff   Thumb Code    82  sim900a.o(.text)
    SIM900A_get_monthday                     0x00001a51   Thumb Code    60  sim900a.o(.text)
    SIM900A_get_year                         0x00001a8d   Thumb Code    48  sim900a.o(.text)
    SIM900A_set_time                         0x00001abd   Thumb Code   260  sim900a.o(.text)
    SIM900A_get_telnum                       0x00001bc1   Thumb Code    58  sim900a.o(.text)
    TIMER32_0_IRQHandler                     0x00001bfb   Thumb Code    14  sim900a.o(.text)
    timer0Init                               0x00001c09   Thumb Code    76  sim900a.o(.text)
    SIM900A_perform_formatted                0x00001db9   Thumb Code   192  sim900a_core.o(.text)
    SIM900A_core_disable_uart_recv           0x00001e79   Thumb Code     8  sim900a_core.o(.text)
    SIM900A_core_enable_uart_recv            0x00001e81   Thumb Code     8  sim900a_core.o(.text)
    SIM900A_core_set_passive_cb              0x00001e89   Thumb Code     8  sim900a_core.o(.text)
    SIM900A_core_get_cmdline_dest            0x00001e91   Thumb Code     4  sim900a_core.o(.text)
    SIM900A_core_clean_uart_rxbuf            0x00001e95   Thumb Code    18  sim900a_core.o(.text)
    SIM900A_core_init                        0x00001ea7   Thumb Code    16  sim900a_core.o(.text)
    SIM900A_core_getch                       0x00001eb7   Thumb Code   116  sim900a_core.o(.text)
    sm_inner_cmd_push_fifo                   0x00001f49   Thumb Code    18  smset.o(.text)
    sm_init                                  0x000021dd   Thumb Code    28  smset.o(.text)
    sm_option_set_tel                        0x000021f9   Thumb Code     6  smset.o(.text)
    sm_inner_cmd_loop                        0x000021ff   Thumb Code     8  smset.o(.text)
    sm_query_balance                         0x00002207   Thumb Code    96  smset.o(.text)
    sm_exec_query_balance                    0x00002267   Thumb Code    14  smset.o(.text)
    sm_set_time                              0x00002275   Thumb Code    32  smset.o(.text)
    sm_get_balance                           0x00002295   Thumb Code     6  smset.o(.text)
    sm_set_recipient                         0x0000229b   Thumb Code    24  smset.o(.text)
    sm_parse_data                            0x000022b3   Thumb Code    60  smset.o(.text)
    object_string_split                      0x00002375   Thumb Code   330  object.o(.text)
    object_string_get_field_string           0x000024bf   Thumb Code    34  object.o(.text)
    object_string_get_field_total            0x000024e1   Thumb Code    14  object.o(.text)
    object_free                              0x000024ef   Thumb Code    48  object.o(.text)
    pdu_decode                               0x000026a9   Thumb Code   138  pdu_core.o(.text)
    pdu_parse                                0x00002733   Thumb Code   122  pdu_core.o(.text)
    pdu_destroy                              0x000027ad   Thumb Code    18  pdu_core.o(.text)
    pdu_handle_init                          0x000027cd   Thumb Code    66  pdu_handle.o(.text)
    PDU_active_save_options_func             0x0000280f   Thumb Code     8  pdu_handle.o(.text)
    pdu_error_handle                         0x00002817   Thumb Code    60  pdu_handle.o(.text)
    pdu_final                                0x00002853   Thumb Code     4  pdu_handle.o(.text)
    pdu_save_options                         0x00002857   Thumb Code   174  pdu_handle.o(.text)
    pdu_spt_is_string_num                    0x00002d85   Thumb Code    66  pdu_support.o(.text)
    ucs2_to_utf8                             0x00002dc7   Thumb Code   176  pdu_support.o(.text)
    cmd_fifo_init                            0x00002eb5   Thumb Code    22  cmdfifo.o(.text)
    cmd_fifo_add                             0x00002ecb   Thumb Code    72  cmdfifo.o(.text)
    cmd_fifo_main_loop                       0x00002f13   Thumb Code    64  cmdfifo.o(.text)
    SIM900A_api_open                         0x00003051   Thumb Code   246  sim900a_api.o(.text)
    SIM900A_api_init_SMS_address             0x00003147   Thumb Code    60  sim900a_api.o(.text)
    SIM900A_api_init                         0x00003183   Thumb Code   162  sim900a_api.o(.text)
    SIM900A_api_get_SMS_address              0x00003225   Thumb Code     6  sim900a_api.o(.text)
    SIM900A_api_get_CREG                     0x0000322b   Thumb Code     6  sim900a_api.o(.text)
    SIM900A_api_get_COPS                     0x00003231   Thumb Code     6  sim900a_api.o(.text)
    SIM900A_get_rssi_level                   0x00003237   Thumb Code    22  sim900a_api.o(.text)
    SMS_send_utf8_SM                         0x00003417   Thumb Code   464  sms.o(.text)
    SMS_flush                                0x00003699   Thumb Code    66  sms.o(.text)
    SMS_cprintf                              0x000036db   Thumb Code    96  sms.o(.text)
    SMS_printf                               0x0000373b   Thumb Code    38  sms.o(.text)
    SMS_connect                              0x00003761   Thumb Code   124  sms.o(.text)
    __aeabi_uidiv                            0x000037dd   Thumb Code     0  uidiv.o(.text)
    __aeabi_uidivmod                         0x000037dd   Thumb Code    44  uidiv.o(.text)
    __aeabi_idiv                             0x00003809   Thumb Code     0  idiv.o(.text)
    __aeabi_idivmod                          0x00003809   Thumb Code    40  idiv.o(.text)
    ___aeabi_memcpy4$move                    0x00003831   Thumb Code     0  memmovea.o(.text)
    ___aeabi_memcpy8$move                    0x00003831   Thumb Code     0  memmovea.o(.text)
    __aeabi_memcpy                           0x00003831   Thumb Code    64  memmovea.o(.text)
    __aeabi_memmove                          0x00003831   Thumb Code     0  memmovea.o(.text)
    __aeabi_memmove4                         0x00003831   Thumb Code     0  memmovea.o(.text)
    __aeabi_memmove8                         0x00003831   Thumb Code     0  memmovea.o(.text)
    __aeabi_memset                           0x00003871   Thumb Code    14  memseta.o(.text)
    __aeabi_memset4                          0x00003871   Thumb Code     0  memseta.o(.text)
    __aeabi_memset8                          0x00003871   Thumb Code     0  memseta.o(.text)
    __aeabi_memclr                           0x0000387f   Thumb Code     4  memseta.o(.text)
    __aeabi_memclr4                          0x0000387f   Thumb Code     0  memseta.o(.text)
    __aeabi_memclr8                          0x0000387f   Thumb Code     0  memseta.o(.text)
    _memset$wrapper                          0x00003883   Thumb Code    18  memseta.o(.text)
    strstr                                   0x00003895   Thumb Code    40  strstr.o(.text)
    strncpy                                  0x000038bd   Thumb Code    26  strncpy.o(.text)
    strlen                                   0x000038d7   Thumb Code    14  strlen.o(.text)
    memcmp                                   0x000038e5   Thumb Code    26  memcmp.o(.text)
    strncat                                  0x000038ff   Thumb Code    40  strncat.o(.text)
    strcpy                                   0x00003927   Thumb Code    18  strcpy.o(.text)
    strncmp                                  0x00003939   Thumb Code    30  strncmp.o(.text)
    calloc                                   0x00003957   Thumb Code    28  calloc.o(.text)
    atoi                                     0x00003973   Thumb Code    26  atoi.o(.text)
    __aeabi_ddiv                             0x0000398d   Thumb Code   234  ddiv.o(.text)
    __aeabi_i2d                              0x00003a7d   Thumb Code    34  dflti.o(.text)
    __aeabi_uldivmod                         0x00003aa5   Thumb Code    96  uldiv.o(.text)
    strtol                                   0x00003b05   Thumb Code   108  strtol.o(.text)
    __I$use$fp                               0x00003b75   Thumb Code     0  iusefp.o(.text)
    _double_round                            0x00003b75   Thumb Code    26  depilogue.o(.text)
    _double_epilogue                         0x00003b8f   Thumb Code   166  depilogue.o(.text)
    __aeabi_dadd                             0x00003c35   Thumb Code   326  dadd.o(.text)
    __aeabi_dsub                             0x00003d7b   Thumb Code    12  dadd.o(.text)
    __aeabi_drsub                            0x00003d87   Thumb Code    12  dadd.o(.text)
    __aeabi_dmul                             0x00003d99   Thumb Code   202  dmul.o(.text)
    __aeabi_d2ulz                            0x00003e69   Thumb Code    54  dfixul.o(.text)
    __aeabi_cdrcmple                         0x00003ea9   Thumb Code    38  cdrcmple.o(.text)
    __scatterload                            0x00003ed1   Thumb Code    28  init.o(.text)
    __scatterload_rt2                        0x00003ed1   Thumb Code     0  init.o(.text)
    __aeabi_llsl                             0x00003ef5   Thumb Code    32  llshl.o(.text)
    _ll_shift_l                              0x00003ef5   Thumb Code     0  llshl.o(.text)
    __aeabi_llsr                             0x00003f15   Thumb Code    34  llushr.o(.text)
    _ll_ushift_r                             0x00003f15   Thumb Code     0  llushr.o(.text)
    __aeabi_lasr                             0x00003f37   Thumb Code    38  llsshr.o(.text)
    _ll_sshift_r                             0x00003f37   Thumb Code     0  llsshr.o(.text)
    __rt_ctype_table                         0x00003f5d   Thumb Code     4  ctype_o.o(.text)
    _strtoul                                 0x00003f65   Thumb Code   166  _strtoul.o(.text)
    _chval                                   0x0000400b   Thumb Code    30  _chval.o(.text)
    __0printf$8                              0x00004029   Thumb Code    24  printf8.o(i.__0printf$8)
    __1printf$8                              0x00004029   Thumb Code     0  printf8.o(i.__0printf$8)
    __2printf                                0x00004029   Thumb Code     0  printf8.o(i.__0printf$8)
    __0sprintf$8                             0x00004049   Thumb Code    36  printf8.o(i.__0sprintf$8)
    __1sprintf$8                             0x00004049   Thumb Code     0  printf8.o(i.__0sprintf$8)
    __2sprintf                               0x00004049   Thumb Code     0  printf8.o(i.__0sprintf$8)
    __0vprintf                               0x00004071   Thumb Code    12  printfa.o(i.__0vprintf)
    __1vprintf                               0x00004071   Thumb Code     0  printfa.o(i.__0vprintf)
    __2vprintf                               0x00004071   Thumb Code     0  printfa.o(i.__0vprintf)
    __c89vprintf                             0x00004071   Thumb Code     0  printfa.o(i.__0vprintf)
    vprintf                                  0x00004071   Thumb Code     0  printfa.o(i.__0vprintf)
    __0vsnprintf                             0x00004085   Thumb Code    32  printfa.o(i.__0vsnprintf)
    __1vsnprintf                             0x00004085   Thumb Code     0  printfa.o(i.__0vsnprintf)
    __2vsnprintf                             0x00004085   Thumb Code     0  printfa.o(i.__0vsnprintf)
    __c89vsnprintf                           0x00004085   Thumb Code     0  printfa.o(i.__0vsnprintf)
    vsnprintf                                0x00004085   Thumb Code     0  printfa.o(i.__0vsnprintf)
    __ARM_clz                                0x000040a9   Thumb Code    46  depilogue.o(i.__ARM_clz)
    __ARM_common_switch8                     0x000040d7   Thumb Code    28  system_lpc11xx.o(i.__ARM_common_switch8)
    __aeabi_errno_addr                       0x000040f5   Thumb Code     4  errno.o(i.__aeabi_errno_addr)
    __rt_errno_addr                          0x000040f5   Thumb Code     0  errno.o(i.__aeabi_errno_addr)
    free                                     0x000040fd   Thumb Code    94  mallocr.o(i.__free$realloc)
    malloc                                   0x00004161   Thumb Code    54  mallocr.o(i.__malloc$realloc)
    __scatterload_copy                       0x000041a9   Thumb Code    14  handlers.o(i.__scatterload_copy)
    __scatterload_null                       0x000041b7   Thumb Code     2  handlers.o(i.__scatterload_null)
    __scatterload_zeroinit                   0x000041b9   Thumb Code    14  handlers.o(i.__scatterload_zeroinit)
    realloc                                  0x00004f51   Thumb Code   110  mallocr.o(i.realloc)
    l_cmd_ret_value                          0x000051fc   Data          48  sim900a_core.o(.constdata)
    l_inner_cmd_handle                       0x0000522c   Data          64  smset.o(.constdata)
    __ctype_table                            0x000053d0   Data         129  ctype_o.o(.constdata)
    Region$$Table$$Base                      0x00005694   Number         0  anon$$obj.o(Region$$Table)
    Region$$Table$$Limit                     0x000056b4   Number         0  anon$$obj.o(Region$$Table)
    SystemFrequency                          0x10000000   Data           4  system_lpc11xx.o(.data)
    GucRcvNew                                0x10000008   Data           1  main.o(.data)
    GulNum                                   0x1000000c   Data           4  main.o(.data)
    l_pdu_data                               0x1000002c   Data           4  smset.o(.data)
    __stdout                                 0x10000080   Data           4  stdout.o(.data)
    __microlib_freelist                      0x10000084   Data           4  mvars.o(.data)
    __microlib_freelist_initialised          0x10000088   Data           4  mvars.o(.data)
    GucRcvBuf                                0x10000090   Data          10  main.o(.bss)
    g_option                                 0x1000009c   Data         520  main.o(.bss)
    m_GreenHouse                             0x100002a4   Data         256  main.o(.bss)
    l_option_params                          0x10000860   Data          40  pdu_handle.o(.bss)
    __heap_base                              0x10000a08   Data           0  startup_lpc11xx.o(HEAP)
    __heap_limit                             0x10000e08   Data           0  startup_lpc11xx.o(HEAP)
    __initial_sp                             0x10001208   Data           0  startup_lpc11xx.o(STACK)



==============================================================================

Memory Map of the image

  Image Entry point : 0x000000c1

  Load Region LR_IROM1 (Base: 0x00000000, Size: 0x00005744, Max: 0x00008000, ABSOLUTE)

    Execution Region ER_IROM1 (Base: 0x00000000, Size: 0x000056b4, Max: 0x00008000, ABSOLUTE)

    Base Addr    Size         Type   Attr      Idx    E Section Name        Object

    0x00000000   0x000000c0   Data   RO           41    RESET               startup_lpc11xx.o
    0x000000c0   0x00000000   Code   RO          395  * .ARM.Collect$$$$00000000  mc_p.l(entry.o)
    0x000000c0   0x00000004   Code   RO          726    .ARM.Collect$$$$00000001  mc_p.l(entry2.o)
    0x000000c4   0x00000004   Code   RO          729    .ARM.Collect$$$$00000004  mc_p.l(entry5.o)
    0x000000c8   0x00000000   Code   RO          731    .ARM.Collect$$$$00000008  mc_p.l(entry7b.o)
    0x000000c8   0x00000000   Code   RO          733    .ARM.Collect$$$$0000000A  mc_p.l(entry8b.o)
    0x000000c8   0x00000008   Code   RO          734    .ARM.Collect$$$$0000000B  mc_p.l(entry9a.o)
    0x000000d0   0x00000000   Code   RO          736    .ARM.Collect$$$$0000000D  mc_p.l(entry10a.o)
    0x000000d0   0x00000000   Code   RO          738    .ARM.Collect$$$$0000000F  mc_p.l(entry11a.o)
    0x000000d0   0x00000004   Code   RO          727    .ARM.Collect$$$$00002712  mc_p.l(entry2.o)
    0x000000d4   0x00000280   Code   RO           12    .text               system_lpc11xx.o
    0x00000354   0x0000001c   Code   RO           42    .text               startup_lpc11xx.o
    0x00000370   0x00000364   Code   RO           47    .text               main.o
    0x000006d4   0x000002fc   Code   RO          121    .text               conv.o
    0x000009d0   0x00000784   Code   RO          140    .text               dpalarm.o
    0x00001154   0x0000059c   Code   RO          173    .text               gprs.o
    0x000016f0   0x00000604   Code   RO          199    .text               sim900a.o
    0x00001cf4   0x00000254   Code   RO          222    .text               sim900a_core.o
    0x00001f48   0x0000042c   Code   RO          240    .text               smset.o
    0x00002374   0x000001aa   Code   RO          263    .text               object.o
    0x0000251e   0x00000002   PAD
    0x00002520   0x000002ac   Code   RO          275    .text               pdu_core.o
    0x000027cc   0x000005b8   Code   RO          289    .text               pdu_handle.o
    0x00002d84   0x000000f2   Code   RO          306    .text               pdu_support.o
    0x00002e76   0x00000002   PAD
    0x00002e78   0x000000f0   Code   RO          328    .text               cmdfifo.o
    0x00002f68   0x00000384   Code   RO          359    .text               sim900a_api.o
    0x000032ec   0x000004f0   Code   RO          375    .text               sms.o
    0x000037dc   0x0000002c   Code   RO          401    .text               mc_p.l(uidiv.o)
    0x00003808   0x00000028   Code   RO          403    .text               mc_p.l(idiv.o)
    0x00003830   0x00000040   Code   RO          407    .text               mc_p.l(memmovea.o)
    0x00003870   0x00000024   Code   RO          409    .text               mc_p.l(memseta.o)
    0x00003894   0x00000028   Code   RO          411    .text               mc_p.l(strstr.o)
    0x000038bc   0x0000001a   Code   RO          413    .text               mc_p.l(strncpy.o)
    0x000038d6   0x0000000e   Code   RO          415    .text               mc_p.l(strlen.o)
    0x000038e4   0x0000001a   Code   RO          417    .text               mc_p.l(memcmp.o)
    0x000038fe   0x00000028   Code   RO          419    .text               mc_p.l(strncat.o)
    0x00003926   0x00000012   Code   RO          421    .text               mc_p.l(strcpy.o)
    0x00003938   0x0000001e   Code   RO          423    .text               mc_p.l(strncmp.o)
    0x00003956   0x0000001c   Code   RO          718    .text               mc_p.l(calloc.o)
    0x00003972   0x0000001a   Code   RO          720    .text               mc_p.l(atoi.o)
    0x0000398c   0x000000f0   Code   RO          722    .text               mf_p.l(ddiv.o)
    0x00003a7c   0x00000028   Code   RO          724    .text               mf_p.l(dflti.o)
    0x00003aa4   0x00000060   Code   RO          740    .text               mc_p.l(uldiv.o)
    0x00003b04   0x00000070   Code   RO          751    .text               mc_p.l(strtol.o)
    0x00003b74   0x00000000   Code   RO          753    .text               mc_p.l(iusefp.o)
    0x00003b74   0x000000c0   Code   RO          754    .text               mf_p.l(depilogue.o)
    0x00003c34   0x00000164   Code   RO          758    .text               mf_p.l(dadd.o)
    0x00003d98   0x000000d0   Code   RO          760    .text               mf_p.l(dmul.o)
    0x00003e68   0x00000040   Code   RO          762    .text               mf_p.l(dfixul.o)
    0x00003ea8   0x00000028   Code   RO          764    .text               mf_p.l(cdrcmple.o)
    0x00003ed0   0x00000024   Code   RO          766    .text               mc_p.l(init.o)
    0x00003ef4   0x00000020   Code   RO          768    .text               mc_p.l(llshl.o)
    0x00003f14   0x00000022   Code   RO          770    .text               mc_p.l(llushr.o)
    0x00003f36   0x00000026   Code   RO          772    .text               mc_p.l(llsshr.o)
    0x00003f5c   0x00000008   Code   RO          774    .text               mc_p.l(ctype_o.o)
    0x00003f64   0x000000a6   Code   RO          802    .text               mc_p.l(_strtoul.o)
    0x0000400a   0x0000001e   Code   RO          804    .text               mc_p.l(_chval.o)
    0x00004028   0x00000020   Code   RO          636    i.__0printf$8       mc_p.l(printf8.o)
    0x00004048   0x00000028   Code   RO          638    i.__0sprintf$8      mc_p.l(printf8.o)
    0x00004070   0x00000014   Code   RO          666    i.__0vprintf        mc_p.l(printfa.o)
    0x00004084   0x00000024   Code   RO          667    i.__0vsnprintf      mc_p.l(printfa.o)
    0x000040a8   0x0000002e   Code   RO          756    i.__ARM_clz         mf_p.l(depilogue.o)
    0x000040d6   0x0000001c   Code   RO           24    i.__ARM_common_switch8  system_lpc11xx.o
    0x000040f2   0x00000002   PAD
    0x000040f4   0x00000008   Code   RO          744    i.__aeabi_errno_addr  mc_p.l(errno.o)
    0x000040fc   0x00000064   Code   RO          694    i.__free$realloc    mc_p.l(mallocr.o)
    0x00004160   0x00000048   Code   RO          695    i.__malloc$realloc  mc_p.l(mallocr.o)
    0x000041a8   0x0000000e   Code   RO          808    i.__scatterload_copy  mc_p.l(handlers.o)
    0x000041b6   0x00000002   Code   RO          809    i.__scatterload_null  mc_p.l(handlers.o)
    0x000041b8   0x0000000e   Code   RO          810    i.__scatterload_zeroinit  mc_p.l(handlers.o)
    0x000041c6   0x00000002   PAD
    0x000041c8   0x00000158   Code   RO          669    i._fp_digits        mc_p.l(printfa.o)
    0x00004320   0x00000430   Code   RO          643    i._printf_core      mc_p.l(printf8.o)
    0x00004750   0x000006f8   Code   RO          670    i._printf_core      mc_p.l(printfa.o)
    0x00004e48   0x00000020   Code   RO          644    i._printf_post_padding  mc_p.l(printf8.o)
    0x00004e68   0x00000020   Code   RO          671    i._printf_post_padding  mc_p.l(printfa.o)
    0x00004e88   0x0000002c   Code   RO          645    i._printf_pre_padding  mc_p.l(printf8.o)
    0x00004eb4   0x0000002c   Code   RO          672    i._printf_pre_padding  mc_p.l(printfa.o)
    0x00004ee0   0x00000016   Code   RO          673    i._snputc           mc_p.l(printfa.o)
    0x00004ef6   0x0000000a   Code   RO          647    i._sputc            mc_p.l(printf8.o)
    0x00004f00   0x00000050   Code   RO          696    i.internal_alloc    mc_p.l(mallocr.o)
    0x00004f50   0x00000074   Code   RO          697    i.realloc           mc_p.l(mallocr.o)
    0x00004fc4   0x0000015f   Data   RO          142    .constdata          dpalarm.o
    0x00005123   0x00000001   PAD
    0x00005124   0x00000070   Data   RO          175    .constdata          gprs.o
    0x00005194   0x00000068   Data   RO          201    .constdata          sim900a.o
    0x000051fc   0x00000030   Data   RO          224    .constdata          sim900a_core.o
    0x0000522c   0x000000b5   Data   RO          242    .constdata          smset.o
    0x000052e1   0x00000003   PAD
    0x000052e4   0x0000008c   Data   RO          291    .constdata          pdu_handle.o
    0x00005370   0x00000060   Data   RO          361    .constdata          sim900a_api.o
    0x000053d0   0x00000081   Data   RO          775    .constdata          mc_p.l(ctype_o.o)
    0x00005451   0x00000003   PAD
    0x00005454   0x00000004   Data   RO          776    .constdata          mc_p.l(ctype_o.o)
    0x00005458   0x000000a6   Data   RO          176    .conststring        gprs.o
    0x000054fe   0x0000005d   Data   RO          202    .conststring        sim900a.o
    0x0000555b   0x00000019   Data   RO          225    .conststring        sim900a_core.o
    0x00005574   0x00000061   Data   RO          292    .conststring        pdu_handle.o
    0x000055d5   0x000000af   Data   RO          362    .conststring        sim900a_api.o
    0x00005684   0x0000000f   Data   RO          377    .conststring        sms.o
    0x00005693   0x00000001   PAD
    0x00005694   0x00000020   Data   RO          806    Region$$Table       anon$$obj.o


    Execution Region RW_IRAM1 (Base: 0x10000000, Size: 0x00001208, Max: 0x00002000, ABSOLUTE)

    Base Addr    Size         Type   Attr      Idx    E Section Name        Object

    0x10000000   0x00000004   Data   RW           13    .data               system_lpc11xx.o
    0x10000004   0x0000000c   Data   RW           49    .data               main.o
    0x10000010   0x00000008   Data   RW          143    .data               dpalarm.o
    0x10000018   0x0000000c   Data   RW          203    .data               sim900a.o
    0x10000024   0x00000001   Data   RW          226    .data               sim900a_core.o
    0x10000025   0x00000003   PAD
    0x10000028   0x0000000c   Data   RW          243    .data               smset.o
    0x10000034   0x00000008   Data   RW          276    .data               pdu_core.o
    0x1000003c   0x00000010   Data   RW          330    .data               cmdfifo.o
    0x1000004c   0x00000034   Data   RW          378    .data               sms.o
    0x10000080   0x00000004   Data   RW          400    .data               mc_p.l(stdout.o)
    0x10000084   0x00000004   Data   RW          742    .data               mc_p.l(mvars.o)
    0x10000088   0x00000004   Data   RW          743    .data               mc_p.l(mvars.o)
    0x1000008c   0x00000004   Data   RW          747    .data               mc_p.l(errno.o)
    0x10000090   0x00000314   Zero   RW           48    .bss                main.o
    0x100003a4   0x00000050   Zero   RW          141    .bss                dpalarm.o
    0x100003f4   0x00000034   Zero   RW          174    .bss                gprs.o
    0x10000428   0x0000000c   Zero   RW          200    .bss                sim900a.o
    0x10000434   0x00000408   Zero   RW          223    .bss                sim900a_core.o
    0x1000083c   0x00000023   Zero   RW          241    .bss                smset.o
    0x1000085f   0x00000001   PAD
    0x10000860   0x00000028   Zero   RW          290    .bss                pdu_handle.o
    0x10000888   0x0000001e   Zero   RW          329    .bss                cmdfifo.o
    0x100008a6   0x00000002   PAD
    0x100008a8   0x00000020   Zero   RW          360    .bss                sim900a_api.o
    0x100008c8   0x00000140   Zero   RW          376    .bss                sms.o
    0x10000a08   0x00000400   Zero   RW           40    HEAP                startup_lpc11xx.o
    0x10000e08   0x00000400   Zero   RW           39    STACK               startup_lpc11xx.o


==============================================================================

Image component sizes


      Code (inc. data)   RO Data    RW Data    ZI Data      Debug   Object Name

       240         22          0         16         30       2124   cmdfifo.o
       764         40          0          0          0       4327   conv.o
         0          0          0          0          0       4212   core_cm0.o
      1924        614        351          8         80       5932   dpalarm.o
      1436        292        278          0         52       7792   gprs.o
       868        100          0         12        788      18242   main.o
       426          0          0          0          0       2427   object.o
       684         14          0          8          0       3607   pdu_core.o
      1464        332        237          0         40       4949   pdu_handle.o
       242          0          0          0          0       3113   pdu_support.o
      1540        138        197         12         12       9985   sim900a.o
       900        160        271          0         32       3986   sim900a_api.o
       596         30         73          1       1032       3848   sim900a_core.o
      1264         66         15         52        320       4972   sms.o
      1068        134        181         12         35       7474   smset.o
        28          4        192          0       2048        808   startup_lpc11xx.o
       668        104          0          4          0       1301   system_lpc11xx.o

    ----------------------------------------------------------------------
     14118       2050       1832        128       4472      89099   Object Totals
         0          0         32          0          0          0   (incl. Generated)
         6          0          5          3          3          0   (incl. Padding)

    ----------------------------------------------------------------------

      Code (inc. data)   RO Data    RW Data    ZI Data      Debug   Library Member Name

        30          0          0          0          0         60   _chval.o
       166          0          0          0          0         84   _strtoul.o
        26          0          0          0          0         72   atoi.o
        28          0          0          0          0         68   calloc.o
         8          4        133          0          0         60   ctype_o.o
         0          0          0          0          0          0   entry.o
         0          0          0          0          0          0   entry10a.o
         0          0          0          0          0          0   entry11a.o
         8          4          0          0          0          0   entry2.o
         4          0          0          0          0          0   entry5.o
         0          0          0          0          0          0   entry7b.o
         0          0          0          0          0          0   entry8b.o
         8          4          0          0          0          0   entry9a.o
         8          4          0          4          0         60   errno.o
        30          0          0          0          0          0   handlers.o
        40          0          0          0          0         72   idiv.o
        36          8          0          0          0         68   init.o
         0          0          0          0          0          0   iusefp.o
        32          0          0          0          0         68   llshl.o
        38          0          0          0          0         68   llsshr.o
        34          0          0          0          0         68   llushr.o
       368         36          0          0          0        308   mallocr.o
        26          0          0          0          0         72   memcmp.o
        64          0          0          0          0         68   memmovea.o
        36          0          0          0          0        100   memseta.o
         0          0          0          8          0          0   mvars.o
      1230         58          0          0          0        468   printf8.o
      2282        106          0          0          0        528   printfa.o
         0          0          0          4          0          0   stdout.o
        18          0          0          0          0         60   strcpy.o
        14          0          0          0          0         60   strlen.o
        40          0          0          0          0         68   strncat.o
        30          0          0          0          0         72   strncmp.o
        26          0          0          0          0         68   strncpy.o
        40          0          0          0          0         72   strstr.o
       112          4          0          0          0         76   strtol.o
        44          0          0          0          0         72   uidiv.o
        96          0          0          0          0         84   uldiv.o
        40          2          0          0          0         68   cdrcmple.o
       356          6          0          0          0        140   dadd.o
       240          6          0          0          0         84   ddiv.o
       238          0          0          0          0        216   depilogue.o
        64         10          0          0          0         68   dfixul.o
        40          6          0          0          0         68   dflti.o
       208          6          0          0          0         88   dmul.o

    ----------------------------------------------------------------------
      6110        264        136         16          0       3656   Library Totals
         2          0          3          0          0          0   (incl. Padding)

    ----------------------------------------------------------------------

      Code (inc. data)   RO Data    RW Data    ZI Data      Debug   Library Name

      4922        228        133         16          0       2924   mc_p.l
      1186         36          0          0          0        732   mf_p.l

    ----------------------------------------------------------------------
      6110        264        136         16          0       3656   Library Totals

    ----------------------------------------------------------------------

==============================================================================


      Code (inc. data)   RO Data    RW Data    ZI Data      Debug   

     20228       2314       1968        144       4472      89483   Grand Totals
     20228       2314       1968        144       4472      89483   ELF Image Totals
     20228       2314       1968        144          0          0   ROM Totals

==============================================================================

    Total RO  Size (Code + RO Data)                22196 (  21.68kB)
    Total RW  Size (RW Data + ZI Data)              4616 (   4.51kB)
    Total ROM Size (Code + RO Data + RW Data)      22340 (  21.82kB)

==============================================================================

